{
  "transactions": [
    {
      "hash": "0xc0d0977be7036f6e36e0ea5d44ed3d43a7198288f5dc3a73559187ac665ea3c8",
      "transactionType": "CALL",
      "contractName": null,
      "contractAddress": "0x68206e2d0b5c0ad16e2dd05ce7ec0ea2f571ddff",
      "function": "mintTo(address)",
      "arguments": [
        "0xca067E20db2cDEF80D1c7130e5B71C42c0305529"
      ],
      "transaction": {
        "from": "0xca067e20db2cdef80d1c7130e5b71c42c0305529",
        "to": "0x68206e2d0b5c0ad16e2dd05ce7ec0ea2f571ddff",
        "gas": "0x1ebb7",
        "value": "0x0",
        "input": "0x755edd17000000000000000000000000ca067e20db2cdef80d1c7130e5b71c42c0305529",
        "nonce": "0x5",
        "chainId": "0x8157"
      },
      "additionalContracts": [],
      "isFixedGasLimit": false
    }
  ],
  "receipts": [
    {
      "status": "0x1",
      "cumulativeGasUsed": "0x163ff",
      "logs": [
        {
          "address": "0x68206e2d0b5c0ad16e2dd05ce7ec0ea2f571ddff",
          "topics": [
            "0xddf252ad1be2c89b69c2b068fc378daa952ba7f163c4a11628f55a4df523b3ef",
            "0x0000000000000000000000000000000000000000000000000000000000000000",
            "0x000000000000000000000000ca067e20db2cdef80d1c7130e5b71c42c0305529",
            "0x0000000000000000000000000000000000000000000000000000000000000001"
          ],
          "data": "0x",
          "blockHash": "0xbb3648f72f8b964e75772e7404388b4c655ab9e62d86446fa282a85c336e0a5a",
          "blockNumber": "0x10cb7a7",
          "transactionHash": "0xc0d0977be7036f6e36e0ea5d44ed3d43a7198288f5dc3a73559187ac665ea3c8",
          "transactionIndex": "0x1",
          "logIndex": "0x0",
          "removed": false
        }
      ],
      "logsBloom": "0x00000000000000000000000000000000000000000000000000000000000800000000000000000000000000000000000000000000000000000000000000040000000000000000008000000008000000000000000000040000001000000000000000000000020000000000000000000800002000000000000000000010000000000000000000000000000000000000000000000000000000000000000000000000000000000000000000000000000000000000000000000000000000000000000000000002000000000000000000040000800000000000000000000000000060000000000000000000000000000000000000000000000000000000000000000000",
      "type": "0x2",
      "transactionHash": "0xc0d0977be7036f6e36e0ea5d44ed3d43a7198288f5dc3a73559187ac665ea3c8",
      "transactionIndex": "0x1",
      "blockHash": "0xbb3648f72f8b964e75772e7404388b4c655ab9e62d86446fa282a85c336e0a5a",
      "blockNumber": "0x10cb7a7",
      "gasUsed": "0x163ff",
      "effectiveGasPrice": "0x989680",
      "from": "0xca067e20db2cdef80d1c7130e5b71c42c0305529",
      "to": "0x68206e2d0b5c0ad16e2dd05ce7ec0ea2f571ddff",
      "contractAddress": null,
      "gasUsedForL1": "0x0",
      "l1BlockNumber": "0x7e2ea7"
    }
  ],
  "libraries": [],
  "pending": [],
  "returns": {},
  "timestamp": 1746552632,
  "chain": 33111,
  "commit": "d891c8d"
}