{
  "transactions": [
    {
      "hash": "0xa86148dafe14bf629a593257ced5dc8c1ac07407262ebd8dae17a6625093031c",
      "transactionType": "CALL",
      "contractName": null,
      "contractAddress": "0x9ad70bae14e13bd39e92b88fd767a9f9370dc63f",
      "function": "mintTo(address)",
      "arguments": [
        "0xca067E20db2cDEF80D1c7130e5B71C42c0305529"
      ],
      "transaction": {
        "from": "0xca067e20db2cdef80d1c7130e5b71c42c0305529",
        "to": "0x9ad70bae14e13bd39e92b88fd767a9f9370dc63f",
        "gas": "0x1926f",
        "value": "0x0",
        "input": "0x755edd17000000000000000000000000ca067e20db2cdef80d1c7130e5b71c42c0305529",
        "nonce": "0x3",
        "chainId": "0x8157"
      },
      "additionalContracts": [],
      "isFixedGasLimit": false
    }
  ],
  "receipts": [
    {
      "status": "0x1",
      "cumulativeGasUsed": "0x1235c",
      "logs": [
        {
          "address": "0x9ad70bae14e13bd39e92b88fd767a9f9370dc63f",
          "topics": [
            "0xddf252ad1be2c89b69c2b068fc378daa952ba7f163c4a11628f55a4df523b3ef",
            "0x0000000000000000000000000000000000000000000000000000000000000000",
            "0x000000000000000000000000ca067e20db2cdef80d1c7130e5b71c42c0305529",
            "0x0000000000000000000000000000000000000000000000000000000000000002"
          ],
          "data": "0x",
          "blockHash": "0xaf63081900fa6c0d0016fc0c505a48d6013570ed306b752ed7a50ca50a1c68a1",
          "blockNumber": "0x10c9cb5",
          "transactionHash": "0xa86148dafe14bf629a593257ced5dc8c1ac07407262ebd8dae17a6625093031c",
          "transactionIndex": "0x1",
          "logIndex": "0x0",
          "removed": false
        }
      ],
      "logsBloom": "0x04000000000000000000000000000000000000000000008000000000000800000000000000000000000000000000000000000400000000000000000000000000000000000000008000000008000000000000000000000000000000000000000000000000020000000000000000000800002000000000000000000010000000000000000000000000000000000000000000000000000000000000000000000000000000000000000000000100000000000000000000000000000000002000000000000002000000000000000000000000000000000000000000000000000020000000000000000000000000000000000000000000008000000000000000000000",
      "type": "0x2",
      "transactionHash": "0xa86148dafe14bf629a593257ced5dc8c1ac07407262ebd8dae17a6625093031c",
      "transactionIndex": "0x1",
      "blockHash": "0xaf63081900fa6c0d0016fc0c505a48d6013570ed306b752ed7a50ca50a1c68a1",
      "blockNumber": "0x10c9cb5",
      "gasUsed": "0x1235c",
      "effectiveGasPrice": "0x989680",
      "from": "0xca067e20db2cdef80d1c7130e5b71c42c0305529",
      "to": "0x9ad70bae14e13bd39e92b88fd767a9f9370dc63f",
      "contractAddress": null,
      "gasUsedForL1": "0x0",
      "l1BlockNumber": "0x7dfec7"
    }
  ],
  "libraries": [],
  "pending": [],
  "returns": {},
  "timestamp": 1746400921,
  "chain": 33111,
  "commit": "0496e99"
}